:020000041000EA
:1000000000B5324B212058609868022188439860DF
:10001000D860186158612E4B002199600221596106
:100020000121F02299502B49196001219960352056
:1000300000F044F80222904214D00621196600F024
:1000400034F8196E01211966002018661A6600F04E
:100050002CF8196E196E196E052000F02FF8012189
:100060000842F9D1002199601B49196000215960AB
:100070001A491B48016001219960EB211966A021F2
:10008000196600F012F800219960164914480160C1
:100090000121996001BC002800D000471248134993
:1000A000086003C880F30888084703B5996A0420EC
:1000B0000142FBD001200142F8D103BD02B5186610
:1000C0001866FFF7F2FF186E186E02BD00000240BE
:1000D000000000180000070000035F00212200005C
:1000E000F4000018222000A00001001008ED00E03C
:1000F00000000000000000000000000074B24E7A12
:1001000000200420F7010010C3010010C5010010F9
:10011000C1010010C1010010C1010010C101001097
:10012000C1010010C1010010C1010010C701001081
:10013000C1010010C1010010C9010010CB01001065
:10014000CD010010CD010010CD010010CD01001037
:10015000CD010010CD010010CD010010CD01001027
:10016000CD010010CD010010CD010010CD01001017
:10017000CD010010CD010010CD010010CD01001007
:10018000CD010010CD010010CD010010CD010010F7
:10019000CD010010CD010010CD010010CD010010E7
:1001A000CD010010CD010010CD010010CD010010D7
:1001B000CD010010CD010010CD010010CD010010C7
:1001C00000BE00BE00BE00BE00BE00BE00F04BF888
:1001D000103800BEF2EB8871C8260010E826001027
:1001E0003402001090A31AE700202149086006C8D5
:1001F00081F3088810471F48006800282FD10DA4FC
:100200000ECC002902D000F012F8F9E71A491B4A77
:10021000002000E001C19142FCD1194988471949E9
:1002200088471949884700BEFDE701C901C29A42C3
:10023000FBD37047E8260010C00000204C0A0020C5
:1002400074300010000004200000042074300010FE
:1002500000100420001004200000000070470B482C
:1002600001F0FEFA0047EFF30580C0B270470000CE
:1002700008ED00E0000000D0500A00201C0D002016
:10028000011000100D03001021110010575600003E
:1002900006005250ABB3605388260010060052503F
:1002A000861C030298260010060052505422A29D7C
:1002B000A026001005005250DE65F468743000106E
:1002C000F8B5C04610B5064C2378002B07D1054B76
:1002D000002B02D0044800E000BF0123237010BDB2
:1002E000500C00200000000008260010044B10B540
:1002F000002B03D00349044800E000BF10BDC046F6
:1003000000000000540C00200826001070B5D02416
:10031000802519202406AD0400F00AF86562FA2051
:10032000A56100F0CDFAFA20656100F0C9FAF6E7A0
:100330000123D0228340120693629361094A83000D
:100340009446402263441968C0004A40C0211140CD
:100350008022520113431960034B9C4605236044DD
:100360004360704704C0014000400140F8B5CE46EC
:100370004746914680B5EFF3108C72B6104D2B684E
:10038000002BFCD0BFF35F8FCB08C45CC7180720DD
:10039000260001230840C6401A00324033420BD1E8
:1003A000834023433B70BFF35F8F2A608CF3108838
:1003B000C0BCB946B046F8BD484600F0B3FEC046E2
:1003C0002C0100D00021044B044ABFF35F8F02C30D
:1003D0009342FAD17047C046000100D0800100D09E
:1003E000044A1078431CDBB2172B00D9102313707A
:1003F0007047C0467C010020024B18688007C00F80
:100400007047C04600C0064083680B4810B584465C
:1004100061446244090112019A18591854684B68E2
:1004200001209C4201D802D00020C0B210BD126849
:100430000B689A42F9D8F7E7FFFFFF0F40BF002093
:1004400000217047F8B5DE4657464E464546E0B5B2
:100450001F000DAB1B7805009B460C9B1600002B64
:1004600045D03F4A0C9B9446DBB2AA689A460C9B47
:100470002C68634494461B010A9A63449A600B9A61
:100480001E60DA600C9A5F6094460C9B00225B0051
:100490006344033B9846236843449A705A701A7029
:1004A000637B9946002B42D052461900A0686368CE
:1004B0009847226800282BD04B465B004B44033BF7
:1004C000D1188C464146484651188870D35C002BA1
:1004D00042D15346624613704B4663730C9B994559
:1004E00027D0F0BCBB46B246A946A046F8BD02687C
:1004F000947B002CF5D0116863008C461B19634473
:10050000033B5B789373002B00D1D3730C94A8E763
:100510004346D1184B4650465B004B44033BD3182F
:1005200098704046125C002A18D14B460B70534617
:10053000637332003B00287D00F0E6FA041E06D00B
:100540005B46002B03D15146286800F01BFD0E9B33
:10055000002BC6D01C70C4E74B70BAE75A70E4E7B2
:10056000FFFFFF0FF0B5DE464E46574645460023D7
:10057000E0B58DB00A936B4B8200D3580B9099462F
:1005800000239B464B46079300F05EFA079C06004B
:100590000F006268EFF3108572B61368002BFCD071
:1005A00022000794BFF35F8F2468637B9946002B7A
:1005B00067D092685C4B90464B441B01984443467D
:1005C0001A685B6810001900801BB94100295FDDC3
:1005D0000B9800F099FA00230026984600279A46C7
:1005E000079C6368BFF35F8F5A461A6085F31088D3
:1005F0005346002B08D10028C6D10DB0F0BCBB4635
:10060000B246A946A046F0BD0A9B414618024B4699
:100610001843D047089009916268EFF3108572B6CD
:100620001368002BFCD00794BFF35F8F0899099AD9
:10063000002A48DB114303D0079B1B69002B5DD1C7
:10064000079B1B68D97B002907D04A0052181968FC
:100650008C4649466244033A51704A46DA734B4627
:10066000079A013BD168CA5C0132CA545B46079ABB
:1006700013615368BFF35F8F5A461A6085F3108881
:1006800082E700230026984600279A460020A7E725
:10069000002901D100289BD10121200000F0F4FBAA
:1006A00043461E685F689B68079A9A464346DB6824
:1006B0009846D3684B44013B1B780A931B020343C3
:1006C000136100208CE72369002BB9D033003C0074
:1006D0005B1A94411A002300A74219D89F421BD0ED
:1006E00059460491012103914946029141460191E5
:1006F000514607980091FFF7A5FEB7E700F0A4F96F
:10070000089A099B06000F0092197B419942E5D98E
:1007100001225242D317E3E79642E1D90122524225
:10072000D317DDE7F40C0020FFFFFF0FF8B55746A5
:100730004E46DE4645469146E0B504009A4642687C
:10074000EFF3108872B61368002BFCD0BFF35F8FF5
:100750002668B57B002D48D06F0033687F19033FB2
:10076000D9194B78B373002B00D1F373A268344BC3
:1007700094464A46EB181B0163441A6052465A607D
:10078000304A9A600022DA608A704A700A70737B7D
:100790009B46002B43D02A001900B0687368984725
:1007A000326800282FD05B4658465B005B44D7195F
:1007B000033BB870D118D35C002B3FD15B460D7062
:1007C00073735D452CD00026E3685B19013B1978F3
:1007D0006368BFF35F8F00221A6088F310880020DF
:1007E000002E0AD10802284307E06368BFF35F8F39
:1007F0001D6088F3108801204042F0BCBB46B24621
:10080000A946A046F8BD5B465B005B44033BD3189A
:100810009D70D119D25D002A0ED15B460B707573A5
:100820004A465346207D00F06FF9061ECBD02900C2
:10083000206800F0A7FBC7E75A70EEE77B70BDE7C2
:10084000FFFFFF0F3D04001070B5184C2368002B0C
:1008500000D070BD032000F0EBF8032000F0B6F9E3
:100860001349032000F00AF9182001F00DF90500E2
:10087000FFF7B6FD0F4B2A009C46604480000E49EE
:100880006860102000F00AFA10212860102001F0A2
:10089000FFF80121A860102001F0FAF803232B755E
:1008A000064BE860DD602560D3E7C046DC0C002025
:1008B000650500104000003409040010F40C00200D
:1008C000F8B5040000F0C0F8FA2206000F0020007E
:1008D00000230021920001F075F88019794104008D
:1008E0000D008F421AD817D006267642F717361910
:1008F0006F41AF4237D90026002700F0A5F832003B
:100900003B00121A8B41002B16DC002B28D029004B
:10091000200000F0A3F8F8BD8642E5D9072676420C
:10092000F71700F091F832003B00121A8B410124B6
:100930006442E517002BE8DD0D4B320018683B00E0
:10094000FFF7F4FE0028E2DB39000A4A536A9942B5
:1009500004D8906A8642DAD99942D8D120BFF5E707
:10096000002AD4D0E8E7AF42C7D1A642C3D8C4E733
:10097000DC0C002000400540F0B5D6464F46464608
:10098000C0B5EFF305833F22134018001038EFF392
:10099000108C72B6204D2A68002AFCD0BFF35F8FFE
:1009A0000122110081401D4C884661631C491700DB
:1009B0000E788A463100C1400F400A4209D1BFF388
:1009C0005F8F2F608CF31088E0BCBA46B146A84612
:1009D000F0BD14498200646A51588C420FD3124B07
:1009E000D25843469E4353461E70BFF35F8F002389
:1009F0002B608CF31088002AE6D09047E4E70B4A7E
:100A00009B00904643441A681A60BFF35F8F00232F
:100A10002B608CF31088D7E7280100D000400540F8
:100A20001A0D0020080D0020A40C0020D03F054026
:100A300010B50100024A0348FFF798FC10BDC046FC
:100A40003C260010180D0020034B596A0A00986AD2
:100A5000596A8A42FAD1704700400540064A536AF3
:100A60009942FCD807D1044B02E05A6A914202D164
:100A70009A6A8242F9D370470040054070B504007D
:100A80000D00EFF3108672B61A4A1368002BFCD0E3
:100A9000BFF35F8F002D1BD0200000F02DFD164905
:100AA00081420AD0200000F02FFD0121200000F03B
:100AB00011FD0123A340114A1360114BA400E5501E
:100AC000BFF35F8F00220B4B1A6086F3108870BD56
:100AD0000B4BA200D5500122A2400A4920000B78FE
:100AE00093430B70044900F039FD0021200000F011
:100AF000F1FCE5E7280100D07909001038600540D5
:100B0000A40C00201A0D0020F0B5CE46474680B553
:100B10002A4C616A0D00A66A616AA942FAD18B4229
:100B200007D804D00120C0BCB946B046F0BDB242DF
:100B3000F8D9EFF3108972B6214C21680029FCD056
:100B4000BFF35F8F012585401C4C1E4F6563E9B2E2
:100B5000884639788C464146664631433970011DD6
:100B600089000A51184980004350216A0020294217
:100B70000BD0616A0800A66A616A8142FAD18B4291
:100B800002D80AD1B24208D90020BFF35F8F0022F9
:100B90000B4B1A6089F31088C5E7084B42461D626B
:100BA0005D636346934301203B70BFF35F8F002278
:100BB000034B1A6089F31088B5E7C0460040054032
:100BC000280100D01A0D0020080D0020EFF3108C32
:100BD00072B60A490B68002BFCD0BFF35F8F01236C
:100BE0008340074A0748136202789A430270BFF3B2
:100BF0005F8F00230B608CF310887047280100D0B2
:100C0000004005401A0D0020024B9C4661448900BB
:100C1000016070474000003410B50400FFF7E0FBAE
:100C200001002000FFF7F0FFFF232371BFF35F8F68
:100C300010BDC04670B5050014001600002915D07F
:100C40000C00002A12D080686B6898472968002839
:100C50000ED073009B196200033B1219CB18033AA4
:100C60009C7088188A5C002A15D10670200070BD1F
:100C700063001B197200033B9219CB18033A9E7054
:100C800088188A5C002A02D104703400EEE75A709A
:100C900004703400EAE75A700670E7E7F0B5C6461C
:100CA00005000F0000B510210120160000F0F0FE35
:100CB000EBB204000373032147602800984600F05C
:100CC000E7FE002363730133A3734346FF21E373FD
:100CD000FE232060A66029402B4206D0421CFD3B2B
:100CE0000133137003328B42FAD34B00591800239F
:100CF000401803384370200080BCB846F0BDC046A1
:100D0000F8B5CE46474606000C0080B5002907D04E
:100D10004D0003686D18033D5A195778002F04D110
:100D20002000C0BCB946B046F8BD7900C9190339E6
:100D30008846434459788946002159705170736838
:100D40003A002100806898473368002814D0424652
:100D50009A18947059195B5D002B00D053700F7076
:100D6000270049463000FFF7CBFF39000200300072
:100D7000FFF760FF0400D3E7424641465D19AF70BC
:100D80009A185B5C002B00D06B701470E9E7C046CA
:100D9000F0B557464546DE464E46E0B50D006B00C1
:100DA00001685B19DF1E0400C85D83B00192CA1997
:100DB00000284CD043001B18033BCB185E78B44688
:100DC000002E16D1019E002E3ED1E67B002E04D0CF
:100DD00073009B19CB18033B5D70E57300282FD17E
:100DE0000023537003B0F0BCBB46B246A946A046F0
:100DF000F0BD72006244033A89184A789046002296
:100E00004A7091465A70010032002000FFF712FF2D
:100E100043468246002B07D05B0021684344033BD6
:100E2000CB185A78002A16D1424651462000FFF7C7
:100E300001FF2168019BCA19002BC6D00028CFD022
:100E400043001B18033BCB1800219970C8E7019B96
:100E5000002BC5D1B9E7500080180338091848782D
:100E6000834648464870587041462000FFF7E2FE2E
:100E7000594680462000FFF743FF4146020020000C
:100E8000FFF7D8FE8046CFE7F0B557464546DE4629
:100E90004E46E0B583B00191457B04006B000068CD
:100EA0005B19DF1EC15DC21900294ED04B005B18D3
:100EB000033BC3185E78B446002E18D1019E002E65
:100EC00040D1E67B002E04D073009B19C318033B6E
:100ED0005D70E573002931D10023280053706173E0
:100EE00003B0F0BCBB46B246A946A046F0BD7200B6
:100EF0006244033A8018427890460022427091463C
:100F00005A7020003200FFF795FE43468246002BC0
:100F100007D05B0021684344033BCB185A78002A72
:100F200017D1424651462000FFF784FE019B010085
:100F30002068C219002BC4D00029CDD04B005B180B
:100F4000033BC31800209870C6E7019B002BC3D158
:100F5000B7E7500080180338091848788346484698
:100F60004870587041462000FFF764FE594680469D
:100F70002000FFF7C5FE414602002000FFF75AFEA1
:100F80008046CEE770B5040000292CD0437B8B420D
:100F90002ED0056848004018033828188278002AA7
:100FA00021D053009B18033BEA5CEE188A4202D121
:100FB0001BE0002A08D053009B18033BEB185A781B
:100FC0008A42F6D142785A7000230022837043701F
:100FD0002000FFF7DDFE617B02002000FFF72AFE04
:100FE0006073012000E0002070BD43783370EBE7B0
:100FF00000221900FFF7CCFE60730120F4E7C04621
:10100000F8B52B4A2B4B2C491A602C4A2C4B1A60F2
:1010100014008B689C43FBD12A4D2B4EB54208D25D
:10102000013E761BB60808CD984723000134B34231
:10103000F9D100F095F8254A214B1A601E4A9368B1
:10104000DB43DB01DC09002BF9D14022204B214D91
:10105000214F9A675A671A67DA66BD420BD200269B
:10106000013F7F1BFF082800FFF7D6FD083533003E
:101070000136BB42F7D1194E194DC022A968300084
:1010800000F018FDAE60FFF79DF900F0A5FBFFF73B
:10109000DBFB144D144EB54208D2013E761BB60858
:1010A00008CD9847230001349E42F9D1F8BDC046CF
:1010B000BFCDFFFF00E0004000C00040FE7F3C00CD
:1010C00000F00040380A0020480A0020FFFFFF011E
:1010D00000F00140300A0020380A00200000002003
:1010E00000ED00E0480A00204C0A0020094A0300F5
:1010F0001068002805D00849C3188B4207D2136036
:10110000704706480449C31810608B42F7D301208A
:101110004042F5E7EC0C0020000004201C0D0020EC
:1011200000BEFDE70FB400B5084883B000F0A2FD93
:10113000049B002B07D005A91800019100F070FB5B
:10114000034800F097FD00BEFDE7C0466026001092
:101150007026001010B50148FFF7E4FF7426001058
:1011600030B50C2083B000F06BF9FFF745F900288B
:101170000ED09A4B9A4A1A605A609A60DA601A61E5
:101180005A619A61DA611A62964A5A6203B030BDB6
:10119000954CA06700F05CF90122944B1A60636CD7
:1011A000012BFCD10322924B1A608F4A936B012BC7
:1011B000FCD1C0228F4B92011A608F4B8F491A606D
:1011C00010008B689843031EFAD1022401218C4A37
:1011D0008C480633009400F04FF905238A4A012118
:1011E0008A48009400F048F9894B5A68FF2A02D8CF
:1011F000802252005A608022784C7D4B2169120176
:10120000834D1A60002905D0606900F05BFB013056
:101210000138FDD1E0217E4B02201A681140802266
:1012200052012A43116019684840032101401160AE
:1012300004219A681142FCD08022802192012A4325
:1012400009011160802252005A60724B2361724B77
:101250005968FF2900D85A600321644A6E4B116017
:1012600002399A681142FCD0E0201A6810408022AE
:1012700052011A43106018684840032101400220BF
:10128000116065498A681042FCD0802292011343A4
:10129000802212011A608022604B52004A60636112
:1012A0005F4B5968FF2900D85A6080225D4BE16985
:1012B00012015B4D1A60002905D0606900F002FB45
:1012C00001300138FDD1E02255490B681A408023D6
:1012D0005B012B431A60802380229B012B43120168
:1012E0001A6080223E4B52004A60E3614E4B5968BF
:1012F000FF2900D85A6080224C4B216A12014A4DC6
:101300001A60002905D0606900F0DCFA013001386C
:10131000FDD1E02244490B681A4080235B012B4336
:101320001A60802380229B012B4312011A608023C4
:1013300080225B004B602A4BD20223623C4B5968EF
:10134000914200D25A6080223A4B616A1201384DB4
:101350001A60002905D0606900F0B4FA0130013844
:10136000FDD1E02232490B681A4080235B012B43F8
:101370001A60802380229B012B4312011A60802374
:10138000DB024B60174B63622B4B5A68FF2A02D873
:10139000802252005A608022284BA1691201264DFA
:1013A0001A60002905D0606900F08CFA013001381C
:1013B000FDD1E02220490B681A4080235B012B43BA
:1013C0001A60802380229B012B4312011A60802324
:1013D0005B004B60114BA361D8E6C046B40C002003
:1013E000006CDC021BB70000008000403CB00040F5
:1013F00030B0004000E0004000F0004000C000407D
:10140000002F68590080024000389C1C00C0024038
:1014100030800040001BB7003C80004040597307FB
:101420005480004054B000406080004060B00040F4
:101430006C8000406CB000404880004048B00040E4
:101440008023024A9B000343D3627047008005401B
:10145000AA23064A1B0113602F230549D360054BBD
:1014600019605368002BFCDA7047C0460040024008
:1014700000B0FA0000600240F0B5C64600B51E009C
:1014800006AB1F7801235B424360002304008360A6
:1014900001600C20904600F015FA4101091A8D01F7
:1014A000691AC90009188901404600F00BFAC021E9
:1014B000231D890119432123A0600B602268002AA3
:1014C000FCDA08233F0336043E43E6600B6080BC31
:1014D000B846F0BD01238340002904D0034A1360BD
:1014E000034A13607047034A1360FBE780E200E0A1
:1014F00000E100E080E100E0024B10309B688000DA
:10150000C058704700ED00E070B50D00EFF3108695
:1015100072B60F4A1368002BFCD0BFF35F8F0D4BE0
:1015200010309B6884001B590B4A934203D09D42A4
:1015300001D0FFF70FFE074B9B681D51BFF35F8F74
:10154000BFF35F8F0022024B1A6086F3108870BDD4
:10155000240100D000ED00E0CD010010F0B5DE4622
:1015600057464E464546E0B50C0083B0EFF3108A6F
:1015700072B65E4A1368002BFCD0BFF35F8F102257
:10158000914681444A465A4B96009B689D59594B57
:1015900098469D4205D0A54216D0574FEB1B2F2BE6
:1015A00014D9534B9B689D51BFF35F8FBFF35F8F7F
:1015B00000224E4B1A608AF3108803B0F0BCBB4681
:1015C000B246A946A046F0BD1D00EAE701238340CC
:1015D0009B465A46494B1B681A4000925A46484B54
:1015E0001A60BFF35F8FFEF73EFE0190002803D024
:1015F000814501D0FFF7AEFD0123290099438B6897
:10160000A34268D00A0007E043001B189B00FB18A8
:101610009868A04211D01A00062010560028F3DA6C
:10162000009B002B05D05A46364B1A60334B1A608C
:10163000B7E75A46324B1A60B3E70620185600281F
:1016400021DB4200111889007C188846A168996046
:10165000E179D97106216156997100292BDBA488A3
:10166000F91A6405241544440919E0240905490DB3
:101670002402214399801218234B9200BF181A7834
:101680001870BA71CCE70198002817D1FF3090711B
:101690001E4890801C4AC91B1078891098718B00D5
:1016A0005B1818011B1818021B1818041B185B0084
:1016B0005B181370B4E7BD210902DBE7144A154932
:1016C000D21A083A5002400D01439980124952083B
:1016D0000A43DA80A4E7062008560B000028B0DA97
:1016E000019A002AEAD14546D4E7C046240100D039
:1016F00000ED00E0CD0100108001002000E100E0DD
:1017000080E100E080E200E0190D002000BDFFFF55
:10171000BA01002000F0FFFF00F8FFFF70B50125BF
:1017200004000543FEF79FFDEFF3108C72B6244AC8
:101730001368002BFCD0BFF35F8F224E8000A11BEB
:1017400089108A0052181301D2181302D2181304F8
:10175000D3181D4A5B005B1891680958A9421CD038
:101760000622B2569A421CD01222B256934222D07E
:101770001E22B256934220D02A22B25603219A4208
:1017800010D0124A11781370A171BFF35F8F00223D
:101790000B4B1A608CF3108870BD92680C49115085
:1017A000EFE700214A005218FF219200B218917110
:1017B00008499180E5E70121F4E70221F2E7C046FC
:1017C000240100D08001002000ED00E0190D002070
:1017D000CD01001000BDFFFFF0B500220324FF275C
:1017E000802620003D00094B11009C461040C0009F
:1017F0008540A14361440B680132AB43350085400D
:101800002B430B60202AECD1F0BDC04600E400E081
:1018100010B5002800D110BD00F01EFAFBE7C0464D
:1018200010B5094A0300146884B0002C08D00122C6
:1018300000910648524203A9A047012004B010BD00
:1018400000F018FA0020F9E7F00C00201118001041
:1018500001480421014B1847D001002081180010D5
:10186000142310B50100188804331B88984710BD55
:10187000162310B50100188802331B88984710BD45
:10188000F8B54746CE4680B50F1E19D014239946A9
:10189000043304000025012698464B461888434629
:1018A00021681B88984701C4431E98410135404276
:1018B0000640AF42F1D13000C0BCB946B046F8BDD9
:1018C0000126F8E7134A936F9B0813D210665166FE
:1018D000002905D0FFE7FFE7FFE7516F106F704762
:1018E00004B5002801D00020C04300F075FE00219F
:1018F00004BDC046936F5B08FDD3F0B5946ED56E02
:10190000576F166FFFF7E2FF9466D5665767166745
:10191000F0BD0000000000D0132370B51D78012D2C
:1019200010D00BDD1948FFF7A3FF194C01008022EE
:10193000200000F0BFF8022D01D070BD144C154BF3
:10194000A364FAE7134B124C23606360A360E36067
:1019500023616361A361E36123626362A362E36263
:1019600023636363A363E36323646364A364E36443
:1019700023656365A365E36523666366A366E36623
:1019800023676367A367E367A364D6E75344000054
:10199000500A00209919001007B5604601880A0A0C
:1019A0000230DF2AFAD1C9B2820804D30288408803
:1019B0000004104300E00068014A5050039007BD46
:1019C000500A002051434343C9188C46110C83B27E
:1019D0004B4310B4040C614392B280B25043624353
:1019E0001C041B0C001910BC59411304120CC01824
:1019F0005141614470470000132310B512481C7810
:101A0000FFF736FF0100012C0AD003DD80220F48CA
:101A100000F050F80E48FFF723FF0E4B186010BD82
:101A20000A4C5422200000F045F80B4B6365A36577
:101A3000E36523666366A366E36623676367A3675C
:101A4000E3672362E361E5E753460000500B0020A3
:101A50004C330000040D00205D1A001007B56046ED
:101A600001880A0A0230DF2AFAD1C9B2820804D3F7
:101A7000028840880004104300E00068014A50508A
:101A8000039007BD500B002010B500F04BF910BDBE
:101A900010B500F00DF910BD01480421014B1847A5
:101AA000E001002081180010014B1B68184700005E
:101AB000E0010020014B5B6818470000E0010020B6
:101AC000F0B546464F46D6468046C0B50E00171EB6
:101AD0003FDD4B1E9946214B0125002400209A46EC
:101AE0000DE04B461B5D0D3B5A425341325DDBB26C
:101AF0000A2A0BD02B00013401359F421ADD002C3D
:101B0000EFD14346325D1B7C0A2AF3D1002BF1D181
:101B1000A04204DA4346211A1B683018984743460E
:101B200050461B6802219847013428002B000135DC
:101B30009F42E4DC874204DD4346391A1B683018B3
:101B40009847F619013E33780D3B5A4253414246BD
:101B50001374E0BCBA46B146A846F0BDC4260010D6
:101B6000F0B557464546DE464E46D023E0B51B0647
:101B70001C68354B83B007000D00180001A9904682
:101B80009A4600F031FD8146002807D1019B9C4216
:101B900004D0504600F030FD012399466B1C03D160
:101BA000380000F0ABFB0500284B1C68002C2FD040
:101BB0000A23274E9B4602E0E468002C28D02268C6
:101BC000002AF9D03368002B01D0A342F4D1637C02
:101BD000002B27D02A0039002000FFF771FF434671
:101BE000002BE9D06B465A461A71637C002B1DD03E
:101BF000237C002B23D00121236801A898476B4642
:101C00001B790D3B5A4253412374E468002CD6D112
:101C10004B46002B0FD103B0F0BCBB46B246A946E1
:101C2000A046F0BD290038009047D8E7012123687D
:101C300001A89847C0E7504600F0C6FCEBE7022138
:101C4000044823689847DAE7300A0020E00C0020B7
:101C5000E80C0020C426001010B582B06B460400CA
:101C60000022D81D01210470FFF77AFF200002B086
:101C700010BDC04670B5040000F040FB0122010019
:101C800005002000FFF76CFF084B1C68002C06D0F5
:101C90006368002B05D09847E468002CF8D1280031
:101CA00070BDE468002CF3D1F9E7C046E00C0020D9
:101CB000030010B50A0003490868190000F004F891
:101CC00010BDC046F001002010B5514300F034F8BB
:101CD000041E0ED00300083B5A6803239A43043ABB
:101CE000242A15D80300132A05D800221A605A6046
:101CF0009A60200010BD00210833016041601B2A5A
:101D0000F3D98160C160242A06D003001033ECE7C8
:101D10000021FFF7C9FEECE70300016118334161C0
:101D2000E3E7C04610B5034B0100186800F004F863
:101D300010BDC046F0010020F0B54E464546DE46D7
:101D40005746E0B50D000B35060083B0162D22D89E
:101D5000102900D9B2E000F0AFFA102518230220B4
:101D6000CB4FFB181A005C68083A944200D1B5E0EA
:101D7000032362689A431300E268A168CA60916015
:101D80000122E318596830000A435A6000F09CFAB7
:101D90002000083095E007239D4300D58EE0A9423E
:101DA00000D98BE000F088FAFC235B009D4200D252
:101DB000A5E1680A00D18BE0042800D978E1382336
:101DC0009846A80980443930C100B14F79184C6851
:101DD0000839A1420ED003239C4604E0002ACBDA46
:101DE000E468A14206D06246636893435A1B0F2AF7
:101DF000F4DD40463A003C690832944200D178E074
:101E000003236168994389460B00491B0F2900DDB4
:101E100079E17A613A610029B2DA80229200914533
:101E200000D30EE15909DA0801238B40D20079680A
:101E3000D2190B4391687B60E260A1609460CC6032
:101E4000012182109140994259D80B4205D10322B9
:101E50009043490004300B42FBD003239846C30053
:101E60009946B944CC4682466346DC68A44507D10E
:101E70002AE1002A00DB33E1E468A44500D123E134
:101E80004246636893435A1B0F2AF2DD01208046C5
:101E9000611905436560A068E5680837C560A860FA
:101EA00040461043F960B9604860CF6030008F60F1
:101EB000E25000F009FA2000083002E00C23002074
:101EC000336003B0F0BCBB46B246A946A046F0BDA5
:101ED00080213F2340209846890076E7DC68023065
:101EE000A34200D044E73A003C690832944200D053
:101EF00086E701217B68821091409942A5D903238E
:101F0000BC6862689A439146954203D8531B0F2BD5
:101F100000DD88E023004B445E4A01935E4B93460C
:101F20001B681268EB18013200D13BE15B4A944612
:101F300063441B0B1B0300933000009900F0CCF9A5
:101F400003008046013300D1F8E0019B834200D9B1
:101F5000F2E0534B19009A460968009B8C465146A3
:101F600063440B6001991A00814200D150E15B4645
:101F70001B68013300D155E1434601995B1A9A1859
:101F800053461A600723424641461A4001921942BD
:101F900000D111E108239846881A424B00998044E9
:101FA00041449B1A5B1A1B051B0D00913000190060
:101FB0009B4600F091F9431C00D14FE14346C01A03
:101FC00003005B440093534652461B6801215B4467
:101FD000136042464046BA60009A0A434260BC42DF
:101FE00000D123E14A460F2A00D821E107200C3A0C
:101FF000824360680140052011436160A118486078
:1020000088600F2A00D934E1424644465268264986
:102010000868984200D20B6024490868984200D3AF
:102020008EE00B608CE001222900134311436519F7
:1020300061603000BD606B6000F046F92000083040
:102040003FE75A0A042A71D9142A00D9C4E01100C2
:102050005C325B31D20008235B429C46BA18944440
:1020600063469A6803239846944500D19DE0434611
:1020700051689943494502D992689445F7D1D3688C
:102080009C467B686146A260E1608C60D460D7E6C4
:1020900020060020280A0020A00C00200F100000BD
:1020A000700C002008100000980C00209C0C0020F0
:1020B000142852D9542800D996E06E239846280B4C
:1020C00080446F30C10080E608239B46073BDC4418
:1020D0009B46DA4443465246134200D0C4E64CE0E5
:1020E0000122E318596830000A435A60E368A26885
:1020F000D3609A6000F0E8F820000830E1E62B0099
:10210000E80808332CE6012360191D4365607861F7
:102110003861C26082601A004B460A434260300058
:10212000E15000F0D1F820000830CAE69A09110009
:1021300039323831D2008EE7BC4260D0BC68626868
:1021400003239A43531B954202D80F2B00DD6AE705
:10215000300000F0B9F80020B3E65B2398468044D5
:102160005C30C10031E608235B429C46E1444B46AB
:102170009B6801384B4500D098E043460342F2D1BA
:102180007B688B437B604900994200D9B7E6002900
:1021900004D1B4E6042294464900E2440B42F9D04B
:1021A00050465CE610330093C6E68910023B8B4034
:1021B00079680B437B6065E7009B300043445B42DA
:1021C0001B051B0D19009B4600F086F8431C00D030
:1021D000F4E600239B46F6E6542A2BD81A0B11008E
:1021E0006F326E31D20036E7AA235B0098422BD8BB
:1021F000DD3B9846E80B80447830C100E5E52C4B88
:10220000009A9A461B689C46534662441A60AEE6A2
:10221000090500D0ABE6009ABC684A4401310A4384
:102220006260F4E65B4642461A60ABE64446EEE680
:1022300041608DE7AA2149008A4224D8DA0B1100B7
:1022400078327731D20006E71A4B984224D87C23A3
:102250009846A80C80447D30C100B6E5009A019BE9
:1022600094464246083B63449B1A009300239B46D6
:10227000A9E621003000083100F0BCF85346BC68E4
:102280001B686268C3E60B498A420BD89A0C11009E
:102290007D327C31D200DEE6FE217E237F2098460F
:1022A000890092E5FE227E219200D4E67B686AE7EF
:1022B000700C00205405000010B5024800F07CF9B5
:1022C00010BDC0466C0C002010B5024800F076F935
:1022D00010BDC0466C0C0020002370B5064D0400F4
:1022E00008002B60FEF702FF431C00D070BD2B6876
:1022F000002BFBD02360F9E7E40C002010B5830726
:102300000AD00300032102E001330B4205D01A7802
:10231000002AF9D1181A10BD030019680C4A0D4C97
:102320008A188A4322420FD15968094A04338A180D
:102330008A43224208D15968054A04338A188A43DD
:102340002242F1D000E001331A78002AFBD1E1E704
:10235000FFFEFEFE80808080F8B50C000500FFF7D0
:10236000ABFF204FBB685E6803239E431E4B341BAC
:102370009C466444240B013C113324039C4207DB3C
:1023800000212800FFF7A8FFBB689B19984204D0E2
:102390002800FFF799FF0020F8BD28006142FFF7F1
:1023A0009BFF431C0DD00122BB68361B16435E60A9
:1023B0000E4B28001A68141B1C60FFF785FF0120D4
:1023C000EAE700212800FFF787FFBA68831A0F2B7E
:1023D000DEDD07490968401A0449086001210B4302
:1023E0005360D5E720060020EF0F0000700C00209E
:1023F000280A0020F0B5C64605000C0000B50029EB
:102400004FD0FFF759FF210008394C680126220000
:102410000320B2438F187B688343624898468368E1
:10242000BB426AD043467B6026421ED108239C46AD
:102430000C688444091B12198C6864454FD0CB6822
:10244000E3609C604346FC186468344211D1BB6869
:10245000554C4244A34200D17EE0FC68DC60A3609E
:10246000012313434B608A5006E0FC186468344231
:10247000EDD016434E603A6080239B009A4213D2FF
:102480005409D3080122A2404468DB002243426081
:1024900018188368C8608B608160D9602800FFF7D6
:1024A00013FF80BCB846F0BD530A042B3ED89409F4
:1024B000260039343836E40004192368083C032721
:1024C0009C4242D05868B843904202D99B689C42D3
:1024D000F8D1DC68CC608B60A160D960DEE7434650
:1024E000F8184068304257D1FB68B8684244164338
:1024F000C36098604E608A50D0E713004344264280
:1025000006D10A68891A8C689B18CA68E2609460D0
:1025100001221A434A60254A816012689A42BDD856
:10252000234B28001968FFF717FFB7E7142B07D9CB
:10253000542B1AD8140B26006F346E36E400BBE718
:102540001E005C335B36DC00B6E70122B610B240F9
:10255000466832434260BDE7D9609960CB608B60CA
:10256000012313434B608A5098E7AA246400A342D6
:1025700005D8D40B260078347736E4009CE70D4C60
:10258000A34205D8940C26007D347C36E40093E702
:10259000FE247E26A4008FE7330013434B603A608D
:1025A0007CE7C04620060020280600202C0A0020D8
:1025B000A00C0020540500007047C0467047C0467C
:1025C000F8B5C0460000000001B40248844601BCD2
:1025D000604700BF5101002001B40248844601BC9D
:1025E000604700BF7901002001B40248844601BC65
:1025F000604700BF0D01002001B40248844601BCC1
:08260000604700BFC10000208B
:10260800466972737420426C696E6B004F6E2D625E
:102618006F617264204C454400000000060052506F
:10262800197CA0B6082600100900525000000002CC
:1026380014260010486172647761726520616C61CC
:10264800726D20256420616C726561647920636C09
:1026580061696D65640000000A2A2A2A2050414EEB
:102668004943202A2A2A0A000A00000048617264A5
:10267800206173736572740052656C6561736500DF
:10268800312E302E310000007069636F00000000A9
:102698006D795F70726F6A0046656220323620324B
:1026A8003032310006005250BBFF3CB69026001075
:1026B80006005250D3F07542802600100D0A000023
:1026C8002426001030260010B4020010A8020010C2
:1026D8009C020010AC26001090020010B8260010D2
:1026E80010B502680024EFF3108172B61368002B4E
:1026F800FCD0BFF35F8F03797F2B0BD80368BFF340
:102708005F8F1C6081F3108820BF0268EFF310818F
:1027180072B6EBE7D0231B061B6803710368BFF38F
:102728005F8F00221A6081F3108810BD03000068D3
:10273800EFF3108C72B60268002AFCD0BFF35F8FEB
:1027480004229A56002A0BDB00290FD000200A60C9
:102758001B68BFF35F8F00221A608CF310887047E4
:10276800D0221206126801201A71F1E70020EFE763
:102778000268EFF3108172B61368002BFCD0BFF328
:102788005F8FFF23037140BF0368BFF35F8F002291
:102798001A6081F3108870477047C0461000000027
:1027A8000000000000000100000000000000000020
:1027B800000002000000000000000000000003000C
:1027C80000000000000000000000FF000000000002
:1027D80000B5486801318E460047704609380149FE
:1027E800884700BD1D170010000000000000000011
:1027F800503300004C3300005433000052330000C3
:102808004D5300004D430000533400004334000092
:10281800F80100200000000000000000E40400208F
:102828004C050020B4050020000000000000000056
:102838000000000000000000000000000000000090
:102848000000000000000000000000000000000080
:102858000000000000000000000000000000000070
:102868000000000000000000000000000000000060
:102878000000000000000000000000000000000050
:102888000000000000000000000000000000000040
:102898000000000000000000000000000000000030
:1028A8000000000000000000000000000000000020
:1028B8000000000000000000000000000000000010
:1028C80001000000000000000E33CDAB34126DE6AD
:1028D800ECDE05000B000000000000000000000016
:1028E80000000000000000000000000000000000E0
:1028F80000000000000000000000000000000000D0
:1029080000000000000000000000000000000000BF
:1029180000000000000000000000000000000000AF
:102C480000000000000000002006002020060020F0
:102C58002806002028060020300600203006002024
:102C680038060020380600204006002040060020D4
:102C78004806002048060020500600205006002084
:102C88005806002058060020600600206006002034
:102C980068060020680600207006002070060020E4
:102CA8007806002078060020800600208006002094
:102CB8008806002088060020900600209006002044
:102CC8009806002098060020A0060020A0060020F4
:102CD800A8060020A8060020B0060020B0060020A4
:102CE800B8060020B8060020C0060020C006002054
:102CF800C8060020C8060020D0060020D006002004
:102D0800D8060020D8060020E0060020E0060020B3
:102D1800E8060020E8060020F0060020F006002063
:102D2800F8060020F8060020000700200007002011
:102D380008070020080700201007002010070020BF
:102D4800180700201807002020070020200700206F
:102D5800280700202807002030070020300700201F
:102D680038070020380700204007002040070020CF
:102D7800480700204807002050070020500700207F
:102D8800580700205807002060070020600700202F
:102D980068070020680700207007002070070020DF
:102DA800780700207807002080070020800700208F
:102DB800880700208807002090070020900700203F
:102DC8009807002098070020A0070020A0070020EF
:102DD800A8070020A8070020B0070020B00700209F
:102DE800B8070020B8070020C0070020C00700204F
:102DF800C8070020C8070020D0070020D0070020FF
:102E0800D8070020D8070020E0070020E0070020AE
:102E1800E8070020E8070020F0070020F00700205E
:102E2800F8070020F807002000080020000800200C
:102E380008080020080800201008002010080020BA
:102E4800180800201808002020080020200800206A
:102E5800280800202808002030080020300800201A
:102E680038080020380800204008002040080020CA
:102E7800480800204808002050080020500800207A
:102E8800580800205808002060080020600800202A
:102E980068080020680800207008002070080020DA
:102EA800780800207808002080080020800800208A
:102EB800880800208808002090080020900800203A
:102EC8009808002098080020A0080020A0080020EA
:102ED800A8080020A8080020B0080020B00800209A
:102EE800B8080020B8080020C0080020C00800204A
:102EF800C8080020C8080020D0080020D0080020FA
:102F0800D8080020D8080020E0080020E0080020A9
:102F1800E8080020E8080020F0080020F008002059
:102F2800F8080020F8080020000900200009002007
:102F380008090020080900201009002010090020B5
:102F48001809002018090020200900202009002065
:102F58002809002028090020300900203009002015
:102F680038090020380900204009002040090020C5
:102F78004809002048090020500900205009002075
:102F88005809002058090020600900206009002025
:102F980068090020680900207009002070090020D5
:102FA8007809002078090020800900208009002085
:102FB8008809002088090020900900209009002035
:102FC8009809002098090020A0090020A0090020E5
:102FD800A8090020A8090020B0090020B009002095
:102FE800B8090020B8090020C0090020C009002045
:102FF800C8090020C8090020D0090020D0090020F5
:10300800D8090020D8090020E0090020E0090020A4
:10301800E8090020E8090020F0090020F009002054
:10302800F8090020F8090020000A0020000A002002
:10303800080A0020080A0020100A0020100A0020B0
:10304800180A0020180A0020FFFFFFFF00000200F6
:103058000000000000000000991A0010511800102C
:0C30680019190010F9190010ED020010F9
:04000005100001E9FD
:00000001FF
